{
  "transactions": [
    {
      "hash": "0x1f1d067ed5b25598208acc835034a716cef47647de6e04978af7e3f2f4526f4b",
      "transactionType": "CALL",
      "contractName": null,
      "contractAddress": "0xe7f1725e7734ce288f8367e1bb143e90bb3f0512",
      "function": "transferAdmin(address)",
      "arguments": [
        "0x70997970C51812dc3A010C7d01b50e0d17dc79C8"
      ],
      "transaction": {
        "from": "0xf39fd6e51aad88f6f4ce6ab8827279cfffb92266",
        "to": "0xe7f1725e7734ce288f8367e1bb143e90bb3f0512",
        "gas": "0x9ce4",
        "value": "0x0",
        "input": "0x75829def00000000000000000000000070997970c51812dc3a010c7d01b50e0d17dc79c8",
        "nonce": "0x3",
        "chainId": "0x7a69"
      },
      "additionalContracts": [],
      "isFixedGasLimit": false
    }
  ],
  "receipts": [
    {
      "status": "0x1",
      "cumulativeGasUsed": "0x7197",
      "logs": [
        {
          "address": "0xe7f1725e7734ce288f8367e1bb143e90bb3f0512",
          "topics": [
            "0xf8ccb027dfcd135e000e9d45e6cc2d662578a8825d4c45b5e32e0adf67e79ec6",
            "0x000000000000000000000000f39fd6e51aad88f6f4ce6ab8827279cfffb92266",
            "0x00000000000000000000000070997970c51812dc3a010c7d01b50e0d17dc79c8"
          ],
          "data": "0x",
          "blockHash": "0xa13198d3a0039cc2eed768870f0be02ba32159403fd40d3392f0339b81cbfe96",
          "blockNumber": "0x1fc",
          "blockTimestamp": "0x68d63fa1",
          "transactionHash": "0x1f1d067ed5b25598208acc835034a716cef47647de6e04978af7e3f2f4526f4b",
          "transactionIndex": "0x0",
          "logIndex": "0x0",
          "removed": false
        }
      ],
      "logsBloom": "0x00000000000000000002000000000000000000000000000000000000000000000000000000000000000000000000000010000000000000000000000000000000000000000000000000000000000000000000000000000000000000000000000000000800000000000000000100000000000000000000000000000000000000000000000000000000000000000000000000000000000000000000000000000000000000000000000000000000000000000000000000000000000000000000000040000000002000200000000000101000000000002000000000000000000000000000000000000000000000000000000001000000000000800000000000000000",
      "type": "0x2",
      "transactionHash": "0x1f1d067ed5b25598208acc835034a716cef47647de6e04978af7e3f2f4526f4b",
      "transactionIndex": "0x0",
      "blockHash": "0xa13198d3a0039cc2eed768870f0be02ba32159403fd40d3392f0339b81cbfe96",
      "blockNumber": "0x1fc",
      "gasUsed": "0x7197",
      "effectiveGasPrice": "0x8",
      "blobGasPrice": "0x1",
      "from": "0xf39fd6e51aad88f6f4ce6ab8827279cfffb92266",
      "to": "0xe7f1725e7734ce288f8367e1bb143e90bb3f0512",
      "contractAddress": null
    }
  ],
  "libraries": [],
  "pending": [],
  "returns": {},
  "timestamp": 1758871457734,
  "chain": 31337,
  "commit": null
}